{
  "contractName": "dBank",
  "abi": [
    {
      "inputs": [
        {
          "internalType": "contract Token",
          "name": "_token",
          "type": "address"
        }
      ],
      "stateMutability": "nonpayable",
      "type": "constructor"
    },
    {
      "anonymous": false,
      "inputs": [
        {
          "indexed": true,
          "internalType": "address",
          "name": "user",
          "type": "address"
        },
        {
          "indexed": false,
          "internalType": "uint256",
          "name": "etherAmount",
          "type": "uint256"
        }
      ],
      "name": "PayFee",
      "type": "event"
    },
    {
      "inputs": [],
      "name": "payFee",
      "outputs": [],
      "stateMutability": "payable",
      "type": "function",
      "payable": true
    }
  ],
  "bytecode": "0x608060405234801561001057600080fd5b506040516102723803806102728339818101604052602081101561003357600080fd5b8101908080519060200190929190505050806000806101000a81548173ffffffffffffffffffffffffffffffffffffffff021916908373ffffffffffffffffffffffffffffffffffffffff160217905550506101de806100946000396000f3fe60806040526004361061001e5760003560e01c80632961025214610023575b600080fd5b61002b61002d565b005b662386f26fc10000341161008c576040517f08c379a00000000000000000000000000000000000000000000000000000000081526004018080602001828103825260228152602001806101876022913960400191505060405180910390fd5b60008054906101000a900473ffffffffffffffffffffffffffffffffffffffff1673ffffffffffffffffffffffffffffffffffffffff166340c10f193360646040518363ffffffff1660e01b8152600401808373ffffffffffffffffffffffffffffffffffffffff16815260200182815260200192505050600060405180830381600087803b15801561011e57600080fd5b505af1158015610132573d6000803e3d6000fd5b505050503373ffffffffffffffffffffffffffffffffffffffff167ffc3807f0745bd1eb5dc5780a175469ce00b0c68e8fa419b52881041a4f3794cc346040518082815260200191505060405180910390a256fe4572726f722c206465706f736974206d757374206265203e3d20302e303120455448a2646970667358221220fab95e388a03d0209753daf2afd0efb7674f24aaa7ecc73c6d6ac8403825c69f64736f6c63430007060033",
  "immutableReferences": {},
  "source": "// SPDX-License-Identifier: MIT\r\npragma solidity >=0.6.0 <0.9.0;\r\n\r\nimport \"./Token.sol\";\r\n\r\ncontract dBank {\r\n\r\n  Token private token;\r\n\r\n  event PayFee(address indexed user, uint etherAmount);\r\n\r\n  constructor(Token _token) public {\r\n    token = _token;\r\n  }\r\n\r\n  function payFee() payable public {\r\n    require(msg.value > 1e16, 'Error, deposit must be >= 0.01 ETH');\r\n\r\n    token.mint(msg.sender, 100); //sending token to user\r\n\r\n    emit PayFee(msg.sender, msg.value);\r\n  }\r\n}\r\n",
  "sourcePath": "F:\\repo\\smart_contract\\src\\contracts\\dBank.sol",
  "compiler": {
    "name": "solc",
    "version": "0.7.6+commit.7338295f.Emscripten.clang"
  },
  "schemaVersion": "3.4.4",
  "updatedAt": "2022-01-10T08:26:21.982Z",
  "networkType": "ethereum",
  "devdoc": {
    "kind": "dev",
    "methods": {},
    "version": 1
  },
  "userdoc": {
    "kind": "user",
    "methods": {},
    "version": 1
  }
}