{
  "contractName": "dBank",
  "abi": [
    {
      "inputs": [
        {
          "internalType": "contract Token",
          "name": "_token",
          "type": "address"
        }
      ],
      "stateMutability": "nonpayable",
      "type": "constructor"
    },
    {
      "anonymous": false,
      "inputs": [
        {
          "indexed": true,
          "internalType": "address",
          "name": "user",
          "type": "address"
        },
        {
          "indexed": false,
          "internalType": "uint256",
          "name": "etherAmount",
          "type": "uint256"
        }
      ],
      "name": "PayFee",
      "type": "event"
    },
    {
      "inputs": [],
      "name": "timeStamp",
      "outputs": [
        {
          "internalType": "uint256",
          "name": "",
          "type": "uint256"
        }
      ],
      "stateMutability": "view",
      "type": "function",
      "constant": true
    },
    {
      "inputs": [],
      "name": "payFee",
      "outputs": [
        {
          "internalType": "bool",
          "name": "",
          "type": "bool"
        }
      ],
      "stateMutability": "payable",
      "type": "function",
      "payable": true
    },
    {
      "inputs": [
        {
          "internalType": "address",
          "name": "payer",
          "type": "address"
        },
        {
          "internalType": "uint256",
          "name": "amount",
          "type": "uint256"
        }
      ],
      "name": "payFeeByToken",
      "outputs": [
        {
          "internalType": "bool",
          "name": "",
          "type": "bool"
        }
      ],
      "stateMutability": "nonpayable",
      "type": "function"
    }
  ],
  "bytecode": "0x608060405234801561001057600080fd5b5060405161061d38038061061d8339818101604052602081101561003357600080fd5b8101908080519060200190929190505050806000806101000a81548173ffffffffffffffffffffffffffffffffffffffff021916908373ffffffffffffffffffffffffffffffffffffffff16021790555050610589806100946000396000f3fe6080604052600436106100345760003560e01c80630ab0df87146100395780632961025214610064578063ac428b1114610084575b600080fd5b34801561004557600080fd5b5061004e6100f5565b6040518082815260200191505060405180910390f35b61006c6100fb565b60405180821515815260200191505060405180910390f35b34801561009057600080fd5b506100dd600480360360408110156100a757600080fd5b81019080803573ffffffffffffffffffffffffffffffffffffffff169060200190929190803590602001909291905050506103db565b60405180821515815260200191505060405180910390f35b60015481565b6000803411610172576040517f08c379a000000000000000000000000000000000000000000000000000000000815260040180806020018281038252601b8152602001807f4572726f722c206465706f736974206d757374206265203e3d2030000000000081525060200191505060405180910390fd5b60008060009054906101000a900473ffffffffffffffffffffffffffffffffffffffff1673ffffffffffffffffffffffffffffffffffffffff1663e7572230426040518263ffffffff1660e01b815260040180828152602001915050602060405180830381600087803b1580156101e857600080fd5b505af11580156101fc573d6000803e3d6000fd5b505050506040513d602081101561021257600080fd5b8101908080519060200190929190505050905060008060009054906101000a900473ffffffffffffffffffffffffffffffffffffffff1673ffffffffffffffffffffffffffffffffffffffff16637ff9b5966040518163ffffffff1660e01b815260040160206040518083038186803b15801561028e57600080fd5b505afa1580156102a2573d6000803e3d6000fd5b505050506040513d60208110156102b857600080fd5b810190808051906020019092919050505090504260018190555060008054906101000a900473ffffffffffffffffffffffffffffffffffffffff1673ffffffffffffffffffffffffffffffffffffffff166340c10f193368056bc75e2d631000006040518363ffffffff1660e01b8152600401808373ffffffffffffffffffffffffffffffffffffffff16815260200182815260200192505050600060405180830381600087803b15801561036c57600080fd5b505af1158015610380573d6000803e3d6000fd5b505050503373ffffffffffffffffffffffffffffffffffffffff167ffc3807f0745bd1eb5dc5780a175469ce00b0c68e8fa419b52881041a4f3794cc346040518082815260200191505060405180910390a260019250505090565b6000808211610452576040517f08c379a00000000000000000000000000000000000000000000000000000000081526004018080602001828103825260208152602001807f4572726f722c20616d6f756e74206f6620706179206d757374206265203e203081525060200191505060405180910390fd5b60008054906101000a900473ffffffffffffffffffffffffffffffffffffffff1673ffffffffffffffffffffffffffffffffffffffff16639dc29fac84846040518363ffffffff1660e01b8152600401808373ffffffffffffffffffffffffffffffffffffffff16815260200182815260200192505050600060405180830381600087803b1580156104e357600080fd5b505af11580156104f7573d6000803e3d6000fd5b505050508273ffffffffffffffffffffffffffffffffffffffff167ffc3807f0745bd1eb5dc5780a175469ce00b0c68e8fa419b52881041a4f3794cc836040518082815260200191505060405180910390a2600190509291505056fea2646970667358221220736a677cc78b23ab875c21f96f820702f90bedb1f22951633315a99f748435ac64736f6c63430007060033",
  "immutableReferences": {},
  "source": "// SPDX-License-Identifier: MIT\r\npragma solidity >=0.6.0 <0.9.0;\r\n\r\nimport \"./Token.sol\";\r\n\r\ncontract dBank {\r\n  Token private token;\r\n  uint256 public timeStamp;\r\n  event PayFee(address indexed user, uint etherAmount);\r\n  constructor(Token _token) public {\r\n    token = _token;\r\n  }\r\n\r\n  function payFee() public payable returns (bool) {\r\n    require(msg.value > 0, 'Error, deposit must be >= 0');\r\n    bool tFlag = token.getPrice(block.timestamp);\r\n    uint256 tokenPrice = token.tokenPrice();\r\n    timeStamp = block.timestamp;\r\n    token.mint(msg.sender, 10**20); //sending token to user\r\n    emit PayFee(msg.sender, msg.value);\r\n    return true;\r\n  }\r\n\r\n  function payFeeByToken(address payer, uint amount) public returns (bool) {\r\n    require(amount > 0, \"Error, amount of pay must be > 0\");\r\n    token.burn(payer, amount);\r\n    emit PayFee(payer, amount);\r\n    return true;\r\n  }\r\n\r\n}\r\n",
  "sourcePath": "F:\\repo\\smart_contract\\src\\contracts\\dBank.sol",
  "compiler": {
    "name": "solc",
    "version": "0.7.6+commit.7338295f.Emscripten.clang"
  },
  "schemaVersion": "3.4.4",
  "updatedAt": "2022-01-11T00:03:18.253Z",
  "networkType": "ethereum",
  "devdoc": {
    "kind": "dev",
    "methods": {},
    "version": 1
  },
  "userdoc": {
    "kind": "user",
    "methods": {},
    "version": 1
  }
}